:10000000F85F0020110400001125000011250000F8
:100010001125000011250000112500001125000008
:1000200011250000112500001125000011250000F8
:1000300011250000112500001125000011250000E8
:1000400011250000112500001125000011250000D8
:10040000FFFFFFFFFFFFFFFFFFFFFFFFFEFFFFFFFD
:1004100062B601F09EFFFEE7F0B5A1B0269C049104
:1004200002A93B254C5500270D970190140000931D
:100430000AE00498019A90470490002800D1A3E0B4
:100440000D98401C0D90641C2178002909D02529A5
:10045000EFD10797089709970A970B970C970021F8
:1004600004E00D9892E0080001210143641C20780B
:100470002028F8D023280CD02B2804D02D2805D0F4
:10048000302809D084E008000221EEE708000421AA
:10049000EBE708000821E8E708001021E5E70F97DF
:1004A0000AE00F9A444B9A4205DA93009A185200D8
:1004B000101830380F90641C20780200303A0A2A55
:1004C000EFD320782E2803D00020C0430E9028E0E0
:1004D000641C20782A280AD100980068009A1060CD
:1004E0000268001D009B18600E92641C19E02D2804
:1004F00002D12D22641C00E000220E970CE0002A9D
:1005000009D10E9B2C4DAB4205DA9D00EB185B0028
:10051000181830380E90641C20780300303B0A2BEA
:10052000EDD302AD29872678310000BF23A000F06B
:10053000ABFE002801D0641C00E000263A202E54B7
:10054000285C682804D1207868280AD1622005E058
:100550006C2806D120786C2803D171203A21685488
:10056000641C12A806902378009A02A9019800F052
:1005700063F8641C002807D112AA02A9019800F0B0
:10058000B3F9002800D45FE70020C04321B0F0BDDC
:100590002A2884D10098026802601068121D009B0E
:1005A0001A600F90002804D542420F9208000421DF
:1005B0000143641C85E70000CBCCCC0C686A6C74EA
:1005C0007A4C00000B0062281CD068280DD06A28E5
:1005D00003D06C2823D0712821D11A68D21D07209E
:1005E00082431A6003CA1A607047002A19681960AA
:1005F000086803D0091D196000B217E0091D1960D1
:1006000080B217E0002A19681960086803D0091D34
:10061000196040B20AE0091D1960C0B20AE0002A60
:1006200019681960086803D0091D1960C11770475F
:10063000091D19600021704770B50C0011001E00E3
:1006400025693000253800D116E11C3868D0001F1C
:10065000022865D9133842D0093861D0801E16D0DF
:10066000401E1ED0401E02285AD9001F19D0401F1C
:1006700000D17EE0401E32D0401E00D1C9E0C01E35
:1006800000D1D7E0801E2AD0C01E28D0FAE06069D1
:10069000421C62610A680A601368121D0A602B54CA
:1006A000FAE001223A20205CFFF78CFF03C4083CEB
:1006B000002904DA6069411C61612D210DE0208F61
:1006C000810704D56069411C61612B2105E0C007E9
:1006D00021D56069411C6161202129541BE0002261
:1006E0003A20205CFFF76EFF03C4083C3820205CF2
:1006F000000710D503CC083C002901D100280AD0FE
:1007000020203043782806D1606930212954401CCC
:10071000411C61612E5460692818E060310085E059
:100720000868C01D0722904308600CC808600CC40C
:10073000083C03CC083CC80F04D06069411C6161CF
:100740002D210DE0208F810704D56069411C616176
:100750002B2105E0C00704D56069411C616120219F
:10076000295460692818E0603100200000F0FCF98D
:1007700092E03B20205C002804D00024E44300BF2A
:1007800046A062E03A20205C622808D0682823D086
:100790006A2812D06C282ED071280ED02BE00A685F
:1007A0000A601068121D0A60002803D10024E44387
:1007B00040A04AE0E16A01706EE0086808600268E3
:1007C000001D0860002A03D10024E44339A03CE066
:1007D000E06AC11703C25FE00A680A601068121D70
:1007E0000A60002804D10024E44300BF31A02CE0BB
:1007F000E16A018050E00A680A601068121D0A6010
:10080000002803D10024E4432AA01EE0E16A01602D
:1008100042E0086808600268001D08600020C043CC
:100820000021104003C4083CE5607821200000F05E
:10083000E5F831E0086808600568001D0860E560BB
:10084000002D06D10024E44320A000F027FD201A4B
:1008500070BD266B002E03D5280000F043FD09E093
:1008600032000021280000F045FD002801D0401B87
:1008700000E03000A0610FE06069411C616125214A
:10088000295409E06169481C606125226A543100DD
:1008900002D0411C61612E54002070BD7072696EDF
:1008A00074665F733A20256E20646973616C6C6FA7
:1008B000776564007072696E74663A2062616420C4
:1008C000256E20617267756D656E74007072696E59
:1008D00074665F733A2062616420257320617267D9
:1008E000756D656E74000000FEB506000D00170002
:1008F000686B6969401A296A401AA969401A696ACD
:10090000401AE969401AA96A401A01903820285C07
:10091000400710D4202069460870019800280ADD9D
:10092000019C01236A462900300000F091FC002858
:1009300060D1641EF5D13A006B692900300000F0E7
:1009400087FC002856D13027684607702C6A002C97
:1009500009DD01236A462900300000F079FC0028F7
:1009600048D1641EF5D1AB69EA682900300000F077
:100970006FFC00283ED1684607706C6A002C09DDC8
:1009800001236A462900300000F062FC002831D1C2
:10099000641EF5D1EB69E868A969421829003000A6
:1009A00000F056FC002825D168460770AC6A002C80
:1009B00009DD01236A462900300000F049FC0028C7
:1009C00018D1641EF5D13820285C400710D52020AE
:1009D00069460870019800280ADD019C01236A46D7
:1009E0002900300000F034FC002803D1641EF5D14A
:1009F000002001E00020C04303B0F0BDF2B586B096
:100A0000040025696F2901D1082707E00846202145
:100A10000143782901D00A2700E010273C2603CCA7
:100A2000083C04AA03C26A46127E642A03D06A46BE
:100A3000127E692A09D1002907DA04A803C8002216
:100A40000023121A8B4104A80CC004A803C8002973
:100A500020D100281ED1206B00281BD1082F4ED199
:100A60003820205C00074AD53B26302046E000298C
:100A70000ED53821615C14220A40102A08D1616B1E
:100A80006269891A226A891A081A002800DD206220
:100A900007B0F0BD0294009504A830C8761E0196F8
:100AA000200029003A00FB1700F02FFC3032D0B2B2
:100AB0003A2803DB6846007E5138121800988255A8
:100AC000200029003A00FB1700F01FFC04000D0075
:100AD00001D1002C05D00298C0680099891988427C
:100AE000DCD3029C009D082F09D13820205C000730
:100AF00005D5A85D302802D0761E3020A8553C20B0
:100B0000801BA061A919E160216B8842AFDA081A45
:100B10002062208F124901402187B9E7F8B50026ED
:100B2000104F04000D00009214E0C00707D53200FA
:100B30003B002000290000F01DFC04000D0000987F
:100B4000401000903000390032003B0000F012FCF1
:100B500006000F0000980028E7D120002900F4BD0E
:100B6000EFFF000000002440F3B593B005AA03C8CE
:100B700002AB03C314A8007820210143684601702A
:100B800061290BD01398006B002801D5062003E0E3
:100B900004D1672902D1012013990863139803C86F
:100BA0004C006415641C13D10B0311D0032013995E
:100BB000886114A8007861381A2804D2554979440C
:100BC000FF31533116E054497944FF314D3111E082
:100BD0004C006415641C13D10B0311D1032013992D
:100BE000886114A8007861381A281BD34B497944CE
:100BF000FF312B3103221398C06800F097FCC2E14B
:100C000010AB03C38CA6C0CE10A803C83940802502
:100C10006D03A9420BD20023019310AB30CB60408F
:100C200069400EE03E497944FF310939E2E7080D99
:100C3000834C2418019410A803C8834D0D408149AA
:100C40002943139B03C368460078612813D1139886
:100C5000C06830210170811C139BD96014A90978E8
:100C6000612901D1782100E0582141701398406931
:100C7000801C13994861139830C826402F4005D135
:100C8000002E03D100206B46188173E1684600787E
:100C9000612800D0A8E01398006B002801D521201E
:100CA00000E0401C0090009F7F1C02A803C80022A7
:100CB000002300F048FC02D2802000064540019845
:100CC000001F019069460A7505A8461C002F00DC2C
:100CD0005FE120002900002280235B0300F04CFC30
:100CE00000D956E169004A0D11001C31002A19D0C3
:100CF000002917DDB24A914206DB10052900802247
:100D000012061140014311E04F4A2A4008051043E2
:100D100005000DE0F8190000F8190000FC190000AA
:100D2000F4190000290080221206114000240D0051
:100D30002000290000F03AFC0290FF1F002F09DD7F
:100D400000F06EFC02000B002000290000F0CFFC38
:100D500004000D00F01D0721029A04E0401E130755
:100D60001B0F03701211002A01DD491EF6D5491E22
:100D700000D50AE1401E00220270F8E700230400BB
:100D800005AD2D1901E0401E6D1E641E2E789E4299
:100D9000F9D00F2B04D14B1C1B5D5B1C491C0B5560
:100DA000002C04D505AA401C0199091D0191431E80
:100DB00011D4D41814A9097825783035EEB23A2E1A
:100DC00002DB0E003A3EAD1925705B1E641E002B3F
:100DD000F2D514AB19701399096B002900D4C6E041
:100DE000411E139B1963C2E002A830C86D006D0854
:100DF000019874494843744900F006FD01900720AA
:100E00000199401A029005DD024620002900FFF7F3
:100E100085FE0AE0424200206C49FFF77FFE020097
:100E20000B002000290000F049FD6A461278662A6E
:100E30000CD1019A0A320AE0FFFFFFFFFFFFFF7F9C
:100E400002FCFFFF0000E03FFFFF0F800622139B24
:100E50001B6B9A18142A00DD142230236C4623756C
:100E600005AB5C1C02E002A803C8049A002A3CDD22
:100E700002AB03C3049202A803C800F0A9FB0F90C1
:100E800006460834042530000A2100F0C0FC0F009B
:100E900030000A2100F0BBFC06003037601E0770EE
:100EA00030000A2100F0B3FC0F0030000A2100F0EE
:100EB000AEFC0600A41E303727706D1EE3D1083447
:100EC0000498083804900028CDDD0F9800F098FBB6
:100ED00002000B0002A803C800F009FC00223C4BF2
:100EE00000F048FA02AA03C2C5E705A8401C211A6F
:100EF00005A8421C019802E0491E401E521C1378AE
:100F0000302BF9D0019068460078662802D101980C
:100F1000401C06E068460078652801D1012000E009
:100F20000020139B1B6B1818814200DA481E002812
:100F30001DD4884204DA115C352901DB392300E035
:100F400030230400511E0D1901E0401E6D1E641E69
:100F50002E789E42F9D0392B02D1135D5B1C1355BC
:100F6000002C04D50A00401C0199491C01916946D6
:100F70000881019800B20090029B1BB214A801786E
:100F8000139800F027F815B0F0BDC61D002F00DD46
:100F90009FE605A9481C331A05A8421C0098834205
:100FA00000DC1800002800D515E7984200DBE5E6D4
:100FB0004B1C1B5C072B00DCE0E60F23DFE6000088
:100FC000FF07000097750000A08601000000F03FB9
:100FD00084D79741F6B583B006000F001C0000F0DF
:100FE000CFFC406A007869460870356B002C03DC42
:100FF000012400BFA3A0049020203843662803D119
:101000000A9F3FB27F1C1AE0672800D085E00A984B
:1010100000B20321C943884200DA82E0A84200DB23
:101020007FE00A9F3FB27F1C3820305C000702D46B
:10103000AC4200DA250038B22D1A00D50025B1697E
:10104000F06840183AB2002A26DC491C30220270AF
:10105000002D03DC3820305C000704D5684600789A
:10106000F2685054491CB16138B241428D4200DAF5
:101070006F423FB278427062ED19A54200DA2C004F
:1010800024B2F46122000499F068B369C01800F03A
:101090004DFA281BB062C3E0944218DA220004998A
:1010A00000F044FAB0690019B0613FB2391B7162B7
:1010B000002D03DC3821715C090706D569460978E3
:1010C000F2681154F069401CF061B562A8E004991F
:1010D00000F02CFA38B2B1690918E41B002D03DCCA
:1010E0003822B25C120704D56A461278F3685A5463
:1010F000491CB16121B28D4200DA2C0022B2049960
:101100000918F068B369C01800F010FA24B2B06989
:101110000019B061281B706282E0612F11D1702725
:1011200012E0AC4204DA3821715C090700D42500D2
:101130006D1E00D50025672F01D1652704E04527E6
:1011400002E0412F00D15027B069411CB161049ADF
:101150001278F3681A540498401C0490002D03DCA4
:101160003820305C000718D5481CB0616A461278F8
:10117000F3685A54002D10DD641E21B28D4200DA4E
:101180002C0022B20499F368181800F0CFF924B2A9
:10119000B0690019B061281B7062F068B16940182D
:1011A00007700A9909B2002904D42B214170801CD0
:1011B000049006E02D224270801C0490484269464B
:1011C000088500246D460A9800B205E00A2100F067
:1011D0001BFB2970641C6D1C00B20028F6DC012C7E
:1011E00009DC20203843652805D130200499087097
:1011F0000498401C0490002C28D1302004990870D9
:101200000498401C07E0641E6946095D3031017096
:10121000401C002CF7DCF168B2698918401AF061B3
:101220003820305C1421014010290DD17069B1695A
:101230004018716A4018F1694018B16A4018716B22
:10124000884201DA081A306205B0F0BD0498E0E780
:10125000F8B50024002B13D007000E0014001D0069
:101260002178B068B847B060002807D0F06A401C09
:10127000F062641C6D1EF3D1002401E00024E443FD
:101280002000F2BD30000000C9B202788A4203D0CB
:10129000401C002AF9D100207047000080B50028CA
:1012A00001D100BF07A006490B68002B03D0222202
:1012B0000021984701E000F069FB222002BD0000F8
:1012C00008E7FF1F636F6E73747261696E74206844
:1012D000616E646C65723A20626164206D6573733F
:1012E00061676500431C0178401C0942FBD1C01AAC
:1012F00070470000C9B2521E05D30378401C8B42D0
:10130000F9D1401E704700207047124224D0994204
:1013100028D970B500251B4202D00C00002109E03D
:101320000024012649186441944200D3A41A76414E
:10133000F8D33100012601E0764109D2001864415A
:101340006D41A41A9D41F7D2A4185D41B619F5D399
:10135000300022002B0070BD1B42D8D108B500F030
:101360001BFB08BD01D19042D3D202000B0000212B
:1013700000207047F0B50E005E400125ED072E40BD
:10138000B446AE0ADF184C18F44208D2F7420ED227
:10139000640D01D07F0D12D100206146F0BD05D152
:1013A000F74201D87F0D05D10020C143F0BDFBD12C
:1013B000640DF9D00020C143490549088FE0E419C4
:1013C000C902DB0229432B43DB0A460DC00231432D
:1013D0008E4630B487B295B27D432E0CADB2140C5C
:1013E0007C43A419260C240425439CB27C43A419F5
:1013F000190C7943270CC919A4B20F043C43090CFA
:10140000000C97B247432E0CBE193543ADB2170CF2
:101410004743360CBF19A6B2BF193E043543240C0E
:101420003E0C36199FB24743BF19BCB23E0C891916
:101430001F0C47437F183E043443390C704680B27A
:1014400097B247432E0CBE193543ADB2170C474334
:10145000360CBF19A6B2BF193E043543240C3E0C0E
:1014600036199FB24743BF19BCB23E0C89191F0CF5
:1014700047437F183E043443390C77463F0C90B203
:1014800078432E0C80190604ADB22E43050CA0B291
:101490002D18120C7A435019020C80B2240CA41897
:1014A0009AB27A43121914042043120C89181B0CA7
:1014B0007B43C91830BCEF0A394203D1B619404109
:1014C0004941641E6F12BF0DE41B0BDBFF19BC42C8
:1014D00011DA240500274208AE4178416141664691
:1014E0003143F0BD641C05D1401C6141CF0201D3E2
:1014F0004908F4E750E75DE770B4103A03D378C9C0
:10150000103A78C0FBD2530701D318C918C001D5CF
:1015100008C908C0D20704D30B880380891C801C2B
:10152000002A01D50B78037070BC70478B0701D17E
:101530008307E1D0124205D00B78491C0370401C90
:10154000521EF9D1704730B4012464054D00EC42BD
:101550000BD85D00EC4208D80C001C436400044327
:10156000144304D2994200D1904230BC7047FCD061
:101570008B42FAD18242F8E730B4012464054D0071
:10158000EC420BD85D00EC4208D80C001C43640010
:101590000443144304D28B4200D1824230BC7047D2
:1015A000FCD09942FAD19042F8E70000F4464A187C
:1015B00005D200F00FF801D580174008604700F011
:1015C00009F80121C907884200D908004042604754
:1015D0004A1812D2400DC90208430121C907084325
:1015E000520D40210901521A521C06D452421F3298
:1015F00001D4D0407047C0177047002070470000EA
:10160000010042221201D21E004207D002D4521E13
:101610000018FCD5C10A4005120589187047000062
:101620000100EED54042F446FFF7EBFF0122D2075E
:10163000114360478B4200D1824205D98446100095
:1016400062468C4619006346DF184C18640D7F0D06
:101650003AD0661C760537D0E61B352E34DCDB022B
:101660002B43DB0A0C0DC9022943C912202E0DDBC6
:101670001700203E06D01F00F741F3405F400026D0
:10168000012A7741C01871410DD217E01700F741C8
:10169000F2405740F3415A40B340F3405A400026CD
:1016A000801859410AD3A21C52050FD0C207012F3E
:1016B000724117004008CB0718434908641C2405F1
:1016C0004208AF4170416141F0BC7047641C210584
:1016D0000020F9E76B4010E06B40ABE7F742F3D135
:1016E000E943F1E72442EFD100200021ECE7F0B418
:1016F0000125ED070F005F40EED40C00871A9C41D6
:1017000005D2C01BA141D219634169406B40AE0AAA
:10171000DF184C18F442E1D2640D7F0DE2D0E61BD5
:10172000362ED1DCDB022B43DB0AA4460C0DC902AA
:101730002943C90A012E28DC04D1D6075208DF0745
:101740003A435B08EF0A76429041994114D03942FE
:101750003BD1B61940414941761C394204D1761C2F
:10176000001849413942FAD0B9436746B74208D90F
:10177000A41B24052143A7E70042EAD13642E8D161
:10178000A2E7E40AE10700209EE7202E0BDD203EC1
:101790001F00F340F7415F40012A002257417E427B
:1017A000984191410BE01700F741F2405740F34157
:1017B0005A40B340F3405A407E42904199410A0357
:1017C00003D2641EB619404149410027641E240516
:1017D0004208AE4178416141F0BC7047F4460028B0
:1017E00004D4494200F013F84042604740420029C7
:1017F00005D45FD000F00BF84042494260474942AF
:1018000000F005F84942604703460B43E6D4002246
:10181000030A8B420BD203098B4219D243088B4235
:101820002ED2411A00D20146524110467047FF2283
:1018300009023FD012068B4205D3121209028B42D5
:1018400001D31212090203098B4219D300E0090ADD
:10185000C3098B4201D3CB01C01A524183098B4289
:1018600001D38B01C01A524143098B4201D34B0172
:10187000C01A524103098B4201D30B01C01A5241D5
:10188000C3088B4201D3CB00C01A524183088B425C
:1018900001D38B00C01A524143088B4201D34B0045
:1018A000C01A5241884200D3401A5241CFD2014659
:1018B0001046704708B500F071F808BDF0B40E008E
:1018C0005E400125ED072E40B446AE0ADF184C18E5
:1018D000F4423BD2F74241D2640D43D07F0D38D061
:1018E000E41BC902DB0229432B43CF0ADB0A0600B3
:1018F000B61A9F4104D2641EB6197F41B6185F41E3
:101900006812800D24180018844222DAE80C0021A5
:10191000B6197F41B61A9F4102D2B6185F413F1CEB
:1019200040414941F4D3241C21DD2405B6197F41EF
:10193000B61A9F4105D33743C60737430026012F08
:101940007041614166463143F0BC7047FCD1F742BB
:1019500005D20020C14349054908F3E704D000201F
:10196000C143F1E77F0DFAD000206146ECE7244245
:10197000FAD1401C61410F03F6D30020E2E70000DA
:10198000014870470000000068E6FF1F80B5012095
:1019900000F006F801BD000070470000704700002D
:1019A00080B500BF00BF024A11001820ABBEFBE7A4
:1019B0002600020070B504009048210049B20422BC
:1019C0005143455A210049B2012900DA14E12100AE
:1019D00049B20D2900DB0FE1290089B2652903DA3C
:1019E0000021874A117082E0290089B2C92903DAEF
:1019F0000121834A11707AE0290089B2FF222E3238
:101A0000914203DA02217E4A117070E0290089B206
:101A1000FF229232914203DA0321794A117066E083
:101A2000290089B2FF22F632914203DA0421744A76
:101A300011705CE0290089B29F4A914203DA0521C6
:101A40006F4A117053E0290089B26E4A914203DA5D
:101A500006216B4A11704AE0290089B2974A9142E7
:101A600003DA0721664A117041E0290089B2944ADD
:101A7000914203DA0821624A117038E0290089B2E4
:101A8000904A914203DA09215D4A11702FE0290042
:101A900089B28D4A914203DA0A21594A117026E02F
:101AA000290089B2894A914203DA0B21544A117004
:101AB0001DE0290089B2864A914203DA0C21504A7E
:101AC000117014E0290089B2824A914203DA0D2193
:101AD0004B4A11700BE0290089B27F4A914203DA28
:101AE0000E21474A117002E00F21454A1170444E01
:101AF000210049B204225143405A3178491CFFF772
:101B000083FE0500280080B2292802DA00207070C8
:101B100072E0280080B2512802DA012070706BE078
:101B2000280080B2792802DA0220707064E0280070
:101B300080B2A12802DA032070705DE0280080B234
:101B4000C92802DA0420707056E0280080B2F1281B
:101B500002DA052070704FE0280080B2FF211A31B0
:101B6000884202DA0620707046E0280080B2FF2129
:101B70004231884202DA072070703DE0280080B2CE
:101B8000FF216A31884202DA0820707034E02800B0
:101B900080B2FF219231884202DA092070702BE076
:101BA000280080B2FF21BA31884202DA0A20707020
:101BB00022E0280080B2FF21E231884202DA0B20C5
:101BC000707019E0280080B24449884202DA0C2083
:101BD000707011E0280080B24149884202DA0D207D
:101BE000707009E0280080B23349884202DA0E2082
:101BF000707001E00F20707070BD0000CCE5FF1F19
:101C0000A0E6FF1FBD020000F8B50400200040B2AE
:101C1000FFF7D0FE33480168802292000A43026039
:101C200031480178090740780004E022D2020240DE
:101C30000A432E48026081202D49087024202D4936
:101C40000870BA202C4908702C480178C906FBD4CA
:101C50000C2102780A40082AFAD11F23284A2500BD
:101C60006DB2042675435519AD781D40254E35706B
:101C70004025260076B204277E439619F678334035
:101C80002B43214E337003789B06FCD503782B42FF
:101C9000FCD00223184D2B7003780B400C2BFBD18A
:101CA0001A48016880235B020B43036064B204207E
:101CB0004443105BC0B2F2BD590200002103000092
:101CC00085030000E90300004D040000B10400009A
:101CD0001505000079050000DD050000090200007F
:101CE0003102000038800440A0E6FF1F4480044019
:101CF00000500640014006400040064006400640B5
:101D0000CCE5FF1F04400640054006400480044027
:101D1000F3B585B0B1486946C880694614200856B5
:101D2000002803D0022823D011D332E0AC48016848
:101D30008022D2000A430260C026B60031000F2084
:101D400000F08AF931000E2000F086F921E0A44865
:101D50000168802212010A430260C026B6003100E9
:101D6000432000F079F93100442000F075F910E0CB
:101D70009B480168802252010A430260C026B600D7
:101D80003100622000F068F93100632000F064F94E
:101D9000FFE7694614200856002800D0B8E09148B3
:101DA0000168914A0A4002600168904A0A43026051
:101DB00091480078F32101408F48017000208C4940
:101DC00008708C4800688D4948430221FFF71CFDCC
:101DD000039004263000C0B2212873DA03980699D4
:101DE0003200D2B2521C5143FFF711FD040080278C
:101DF000BF01200080B2B84262DA0398220092B29A
:101E00003100C9B2491C5143FFF701FD029002980D
:101E10000699401A012803DB02980699451A03E047
:101E200002980699401A4542280080B2002806D13F
:101E3000684644803000C0B26946888042E028008D
:101E40006946C98880B2884207D26846C58068461C
:101E500044803000C0B269468880641C200080B293
:101E6000B8422DDA0398220092B23100C9B2491C5F
:101E70005143FFF7CCFC029002980699401A0128C2
:101E800003DB02980699451A03E002980699401A66
:101E90004542280080B2002806D1684644803000C0
:101EA000C0B2694688800DE028006946C98880B2C2
:101EB000884205D2684644803000C0B269468880B6
:101EC000761C87E7E0205C490A7802406B461A706E
:101ED0001F226B461B786F467F88BFB23F0A1740B0
:101EE0001F430F7069464988544B197054490B7849
:101EF00018406B461870684600786B469B881A40FD
:101F000002430A703C4801780C220A43027063E0E5
:101F10004C4E694614200856042148433058C17875
:101F2000F32008406A461421515604225143715847
:101F3000C87000206A46142151560422514371583A
:101F4000887041480068FA2189004843039003984B
:101F5000069910225143FFF75AFC694648806846AB
:101F6000408880218901884202DB384869464880E0
:101F70006946142008560421484330580078E0216F
:101F8000014068460170684601786846408880B222
:101F9000000AC006C00E08436A46142151560422A6
:101FA000514371580870684640886A46142151565A
:101FB0000422514371584870694614200856042180
:101FC00048433058C1780C2008436A4614215156C2
:101FD000042251437158C87007B0F0BDFFFF0000E4
:101FE0003480044004800440FFFFFFF3000001043C
:101FF00002A00640A8E6FF1F03A0064040420F00D3
:1020000010B5020052B2002A06D1114A1278120607
:10201000FBD5104A11700EE00A4A03005BB204249B
:102020006343D3581B791B06F6D503005BB2042427
:102030006343D258D17110BD00A0064001A00640F4
:102040000AA0064014E6FF1FB4E6FF1FFF1F0000B2
:1020500004A0064007A00640F0B4134A1368802489
:10206000A4000500EDB26D09AC401C4314601F22B2
:102070000E4B0400E4B2641104256C431C59A025E6
:10208000012617000740BE4066510400E4B2641107
:1020900004256C431B590400E4B22240042462432B
:1020A0009950F0BC704700003880044000E6FF1FE4
:1020B000524553000000000000524553000000004C
:1020C00000004E4D49000000000000486172644667
:1020D00061756C7452455300000000000052455376
:1020E00000000000000052455300000000000052B4
:1020F000455300000000000052455300000000005E
:1021000000524553000000000000524553000000FB
:10211000000000535643616C6C00000052455300B0
:102120000000000000524553000000000000506510
:102130006E6453560000005379735469636B00005A
:10214000444D41300000000000444D41310000008A
:102150000000444D41320000000000444D41330076
:1021600000000000444D413400000000005245537F
:102170000000000000004654464100000000004CF2
:1021800056445F4C565700004C4C5700000000006E
:102190000049324330000000000049324331000062
:1021A00000000053504930000000000053504931F6
:1021B000000000000055415254300000000055411D
:1021C00052543100000000554152543200000000CA
:1021D000414443300000000000434D5030000000F7
:1021E000000054504D30000000000054504D3100AC
:1021F0000000000054504D320000000000525443D3
:102200000000000000005254435F5365630000501B
:102210004954000000000000493253300000000023
:10222000005553423000000000004441433000009C
:102230000000005453493000000000004D434700A7
:1022400000000000004C50544D5200000000524568
:102250005300000000000050544100000000000046
:102260005054435F505444000000000035000A1DE4
:102270003000030040000200420003094400030A4A
:1022800048000203500002066000010080000218AE
:102290008800010A9400010DC800031ADC00011F28
:1022A0000090044000A0044000B0044000C004407E
:1022B00000D0044000A0064000B0064000C0064028
:1022C00002040101B8E6FF1F08E7FF1FB8E6FF1F81
:1022D000B8E6FF1F00000000B8E6FF1F0000000086
:1022E00064E6FF1F50E6FF1F000000000000000032
:1022F00000000000000000000000000000000000DE
:10230000000000000000000028270000282700002F
:102310002827000028270000282700002827000081
:1023200028270000FFFFFFFFFFFFFFFF2A27000015
:102330002827000028270000FFFFFFFFFFFF000005
:10234000000100000121C206D20E91404A4A1160EC
:10235000704780B500F0BAF800F04FF800F00EF8C2
:1023600000F0D5F872B64549032000F0F9F80C20CA
:10237000C043FFF7E7FF00F00BF9FEE770B5082058
:102380003F490A78024202D00A78104308703D4E55
:102390000B20FFF739FC30603B4C3C4D306829681E
:1023A000090F491CFFF733FA206039482168FA22E7
:1023B00092005143016000682968090C4907490FE0
:1023C000491CFFF724FA3349086000F006F8E121C0
:1023D00049020020FFF79CFC70BD2F480168802255
:1023E00012010A430260A020C0002C4908602C485A
:1023F000016840220A4302607047FEB529492A4815
:1024000088420DD00022140082225200944207D24A
:10241000042262438A5804236343C250641CF3E7D6
:1024200000F08EF821492248224A0192019A151A99
:102430002A00551E002A04D002780A70401C491C4C
:10244000F6E71D4A1D4B0093009B9B1A1C00631E60
:10245000002C03D000241470521CF7E7184C194DBF
:10246000194E771B3B005F1E002B04D02B78237086
:102470006D1C641CF6E7F7BD00E100E02D270000AD
:1024800002D00740A8E6FF1FB0E6FF1F44800440CB
:10249000ACE6FF1FB4E6FF1F388004400CB00440D8
:1024A000048004400000000000E0FF1F10E4FF1F54
:1024B000B020000044230000A4E6FF1F0CE7FF1F2C
:1024C0000CE7FF1F30270000302700000548016897
:1024D000034A116001680C229143016070470000BB
:1024E000A4E6FF1F0081044038B505000C0022005F
:1024F00029000F4800F04EF8FEE738B504000D0043
:10250000210049B20020FFF77BFD200032BD70475B
:1025100010B50848046808482100C9B2092251438F
:1025200042182100C9B2054800F034F810BD00007F
:102530005C26000004ED00E010E4FF1FBC25000055
:1025400010B50400200080218900FFF75DF9002903
:1025500003D01E210B48FFF7C7FF0B48046010BDD6
:1025600070B506000C00094D07480068A84203D06A
:1025700030210448FFF7B8FF300040B2042148433F
:102580002C5070BD9026000008ED00E000E0FF1F19
:1025900000B5FEE70EB4C0B5020003A8019000200C
:1025A000009001AB0121044878440C30FDF734FF62
:1025B000029906B0084700BF2F0100000A2A2A2A04
:1025C0002A64656661756C745F69737220656E74E8
:1025D00065726564206F6E20766563746F72202566
:1025E000642A2A2A2A2A0D0A0A257320496E74654C
:1025F000727275707400000070B40123002413E03F
:102600000168001D194202D04D466D1E49190C602B
:10261000091D121F042AFAD20D00960701D50C805D
:10262000AD1C1A4000D02C700268001D002AE7D1B2
:1026300070BC704710B5074979441831064C7C448A
:10264000163404E0081D0A68891888470100A14271
:10265000F8D110BD2C0000003800000041737365F4
:102660007274696F6E206661696C656420696E20A2
:102670002573206174206C696E652025640A000052
:1026800079FFFFFF68000000A4E6FF1F00000000C4
:10269000463A5C4B4C32365CE88083E6A0B8335C4B
:1026A000436869705C5372635C6D6973632E630089
:1026B00000F00DF8002801D0FFF7BCFF00BF00BFFD
:1026C000002000BF00BFFFF763FF00F002F8012009
:1026D000704780B500F002F801BD0000074638469B
:1026E000FFF75EF9FBE738B505000C00200000F0AD
:1026F00005F8A04200D00025280032BD80B502496F
:10270000FFF7FBFE02BD00BF20E6FF1F6E616E00FB
:102710004E414E00696E6600494E460000BF00BF44
:1027200000BF00BFFFF7C4FF00002E0000B5FEE7AA
:040000050000271DB3
:00000001FF
